{
  "address": "0x17727C9112c1b2c8bFf7361Df02096Ce3d117e35",
  "abi": [
    {
      "inputs": [],
      "stateMutability": "nonpayable",
      "type": "constructor"
    },
    {
      "anonymous": false,
      "inputs": [
        {
          "indexed": false,
          "internalType": "uint256",
          "name": "coordinateId",
          "type": "uint256"
        },
        {
          "indexed": false,
          "internalType": "address",
          "name": "player",
          "type": "address"
        },
        {
          "indexed": false,
          "internalType": "uint256",
          "name": "x",
          "type": "uint256"
        },
        {
          "indexed": false,
          "internalType": "uint256",
          "name": "y",
          "type": "uint256"
        }
      ],
      "name": "CoordinateCreated",
      "type": "event"
    },
    {
      "inputs": [
        {
          "internalType": "uint256",
          "name": "_newFee",
          "type": "uint256"
        }
      ],
      "name": "changeEntranceFee",
      "outputs": [],
      "stateMutability": "nonpayable",
      "type": "function"
    },
    {
      "inputs": [
        {
          "internalType": "address",
          "name": "_newOwner",
          "type": "address"
        }
      ],
      "name": "changeOwner",
      "outputs": [],
      "stateMutability": "nonpayable",
      "type": "function"
    },
    {
      "inputs": [
        {
          "internalType": "uint256",
          "name": "_gameId",
          "type": "uint256"
        },
        {
          "internalType": "uint256",
          "name": "_x",
          "type": "uint256"
        },
        {
          "internalType": "uint256",
          "name": "_y",
          "type": "uint256"
        }
      ],
      "name": "createCoordinate",
      "outputs": [],
      "stateMutability": "nonpayable",
      "type": "function"
    },
    {
      "inputs": [
        {
          "internalType": "string",
          "name": "_name",
          "type": "string"
        },
        {
          "internalType": "string",
          "name": "_description",
          "type": "string"
        },
        {
          "internalType": "uint256",
          "name": "_duration",
          "type": "uint256"
        },
        {
          "internalType": "uint256",
          "name": "_treasureHash",
          "type": "uint256"
        }
      ],
      "name": "createGame",
      "outputs": [],
      "stateMutability": "nonpayable",
      "type": "function"
    },
    {
      "inputs": [
        {
          "internalType": "uint256",
          "name": "_gameId",
          "type": "uint256"
        }
      ],
      "name": "deposit",
      "outputs": [],
      "stateMutability": "payable",
      "type": "function"
    },
    {
      "inputs": [],
      "name": "entranceFee",
      "outputs": [
        {
          "internalType": "uint256",
          "name": "",
          "type": "uint256"
        }
      ],
      "stateMutability": "view",
      "type": "function"
    },
    {
      "inputs": [
        {
          "internalType": "uint256",
          "name": "_gameId",
          "type": "uint256"
        },
        {
          "components": [
            {
              "internalType": "uint256",
              "name": "coordinateId",
              "type": "uint256"
            },
            {
              "internalType": "address",
              "name": "player",
              "type": "address"
            },
            {
              "internalType": "uint256",
              "name": "x",
              "type": "uint256"
            },
            {
              "internalType": "uint256",
              "name": "y",
              "type": "uint256"
            }
          ],
          "internalType": "struct zkTreasure.Coordinate",
          "name": "_treasureCoordinate",
          "type": "tuple"
        }
      ],
      "name": "finishGame",
      "outputs": [],
      "stateMutability": "nonpayable",
      "type": "function"
    },
    {
      "inputs": [
        {
          "internalType": "uint256",
          "name": "_gameId",
          "type": "uint256"
        },
        {
          "internalType": "uint256",
          "name": "coordinateId",
          "type": "uint256"
        }
      ],
      "name": "fraudProofCheck",
      "outputs": [],
      "stateMutability": "nonpayable",
      "type": "function"
    },
    {
      "inputs": [
        {
          "internalType": "uint256",
          "name": "",
          "type": "uint256"
        }
      ],
      "name": "games",
      "outputs": [
        {
          "internalType": "string",
          "name": "name",
          "type": "string"
        },
        {
          "internalType": "string",
          "name": "description",
          "type": "string"
        },
        {
          "internalType": "uint256",
          "name": "startAt",
          "type": "uint256"
        },
        {
          "internalType": "uint256",
          "name": "duration",
          "type": "uint256"
        },
        {
          "internalType": "bool",
          "name": "isOver",
          "type": "bool"
        },
        {
          "internalType": "address",
          "name": "closestPlayer",
          "type": "address"
        },
        {
          "internalType": "uint256",
          "name": "closestDistance",
          "type": "uint256"
        },
        {
          "internalType": "uint256",
          "name": "totalDeposit",
          "type": "uint256"
        },
        {
          "internalType": "uint256",
          "name": "treasureHash",
          "type": "uint256"
        },
        {
          "components": [
            {
              "internalType": "uint256",
              "name": "coordinateId",
              "type": "uint256"
            },
            {
              "internalType": "address",
              "name": "player",
              "type": "address"
            },
            {
              "internalType": "uint256",
              "name": "x",
              "type": "uint256"
            },
            {
              "internalType": "uint256",
              "name": "y",
              "type": "uint256"
            }
          ],
          "internalType": "struct zkTreasure.Coordinate",
          "name": "treasureCoordinate",
          "type": "tuple"
        },
        {
          "internalType": "bool",
          "name": "treasureCoordinateVerified",
          "type": "bool"
        }
      ],
      "stateMutability": "view",
      "type": "function"
    },
    {
      "inputs": [
        {
          "internalType": "uint256",
          "name": "_gameId",
          "type": "uint256"
        }
      ],
      "name": "getCoordinate",
      "outputs": [
        {
          "components": [
            {
              "internalType": "uint256",
              "name": "coordinateId",
              "type": "uint256"
            },
            {
              "internalType": "address",
              "name": "player",
              "type": "address"
            },
            {
              "internalType": "uint256",
              "name": "x",
              "type": "uint256"
            },
            {
              "internalType": "uint256",
              "name": "y",
              "type": "uint256"
            }
          ],
          "internalType": "struct zkTreasure.Coordinate[]",
          "name": "",
          "type": "tuple[]"
        }
      ],
      "stateMutability": "view",
      "type": "function"
    },
    {
      "inputs": [
        {
          "internalType": "uint256",
          "name": "_gameId",
          "type": "uint256"
        }
      ],
      "name": "getGame",
      "outputs": [
        {
          "components": [
            {
              "internalType": "string",
              "name": "name",
              "type": "string"
            },
            {
              "internalType": "string",
              "name": "description",
              "type": "string"
            },
            {
              "internalType": "uint256",
              "name": "startAt",
              "type": "uint256"
            },
            {
              "internalType": "uint256",
              "name": "duration",
              "type": "uint256"
            },
            {
              "internalType": "address[]",
              "name": "players",
              "type": "address[]"
            },
            {
              "components": [
                {
                  "internalType": "uint256",
                  "name": "coordinateId",
                  "type": "uint256"
                },
                {
                  "internalType": "address",
                  "name": "player",
                  "type": "address"
                },
                {
                  "internalType": "uint256",
                  "name": "x",
                  "type": "uint256"
                },
                {
                  "internalType": "uint256",
                  "name": "y",
                  "type": "uint256"
                }
              ],
              "internalType": "struct zkTreasure.Coordinate[]",
              "name": "coordinates",
              "type": "tuple[]"
            },
            {
              "internalType": "bool",
              "name": "isOver",
              "type": "bool"
            },
            {
              "internalType": "address",
              "name": "closestPlayer",
              "type": "address"
            },
            {
              "internalType": "uint256",
              "name": "closestDistance",
              "type": "uint256"
            },
            {
              "internalType": "uint256",
              "name": "totalDeposit",
              "type": "uint256"
            },
            {
              "internalType": "uint256",
              "name": "treasureHash",
              "type": "uint256"
            },
            {
              "components": [
                {
                  "internalType": "uint256",
                  "name": "coordinateId",
                  "type": "uint256"
                },
                {
                  "internalType": "address",
                  "name": "player",
                  "type": "address"
                },
                {
                  "internalType": "uint256",
                  "name": "x",
                  "type": "uint256"
                },
                {
                  "internalType": "uint256",
                  "name": "y",
                  "type": "uint256"
                }
              ],
              "internalType": "struct zkTreasure.Coordinate",
              "name": "treasureCoordinate",
              "type": "tuple"
            },
            {
              "internalType": "bool",
              "name": "treasureCoordinateVerified",
              "type": "bool"
            }
          ],
          "internalType": "struct zkTreasure.Game",
          "name": "",
          "type": "tuple"
        }
      ],
      "stateMutability": "view",
      "type": "function"
    },
    {
      "inputs": [],
      "name": "nextCoordinateId",
      "outputs": [
        {
          "internalType": "uint256",
          "name": "",
          "type": "uint256"
        }
      ],
      "stateMutability": "view",
      "type": "function"
    },
    {
      "inputs": [],
      "name": "nextGameId",
      "outputs": [
        {
          "internalType": "uint256",
          "name": "",
          "type": "uint256"
        }
      ],
      "stateMutability": "view",
      "type": "function"
    },
    {
      "inputs": [],
      "name": "owner",
      "outputs": [
        {
          "internalType": "address",
          "name": "",
          "type": "address"
        }
      ],
      "stateMutability": "view",
      "type": "function"
    },
    {
      "inputs": [
        {
          "internalType": "uint256",
          "name": "_gameId",
          "type": "uint256"
        }
      ],
      "name": "setWinner",
      "outputs": [],
      "stateMutability": "nonpayable",
      "type": "function"
    },
    {
      "inputs": [
        {
          "internalType": "uint256",
          "name": "_gameId",
          "type": "uint256"
        },
        {
          "components": [
            {
              "internalType": "uint256",
              "name": "coordinateId",
              "type": "uint256"
            },
            {
              "internalType": "address",
              "name": "player",
              "type": "address"
            },
            {
              "internalType": "uint256",
              "name": "x",
              "type": "uint256"
            },
            {
              "internalType": "uint256",
              "name": "y",
              "type": "uint256"
            }
          ],
          "internalType": "struct zkTreasure.Coordinate",
          "name": "_treasureCoordinate",
          "type": "tuple"
        }
      ],
      "name": "verifyTreasureCoordinate",
      "outputs": [],
      "stateMutability": "nonpayable",
      "type": "function"
    },
    {
      "inputs": [
        {
          "internalType": "uint256",
          "name": "_gameId",
          "type": "uint256"
        }
      ],
      "name": "withdraw",
      "outputs": [],
      "stateMutability": "payable",
      "type": "function"
    }
  ],
  "transactionHash": "0x1d14b1b6e68655976dba9a8f6b5d626079e7e2cb03339e049295c9e7d792982f",
  "args": [],
  "numDeployments": 2,
  "solcInputHash": "e3fe89f862abb1b287d6cc8560bf09c8",
  "bytecode": "0x608060405234801561001057600080fd5b50600380546001600160a01b0319163317905566b1a2bc2ec50000600455611ca48061003d6000396000f3fe6080604052600436106100fe5760003560e01c80638da5cb5b11610095578063b6b55f2511610064578063b6b55f25146102c4578063ba080eac146102d7578063c9c73a5f146102f7578063e1ab5a1614610317578063e65998eb1461032d57600080fd5b80638da5cb5b14610229578063a2f77bcc14610261578063a6f9dae11461028e578063b135bbb0146102ae57600080fd5b806352337242116100d1578063523372421461019857806359c309f4146101c5578063649677e1146101e557806383cfd07c1461020957600080fd5b80630df7160214610103578063117a5b90146101255780632e1a7d4d1461016557806332f692e114610178575b600080fd5b34801561010f57600080fd5b5061012361011e36600461144c565b61034d565b005b34801561013157600080fd5b5061014561014036600461144c565b6103c7565b60405161015c9b9a999897969594939291906114d7565b60405180910390f35b61012361017336600461144c565b610585565b34801561018457600080fd5b5061012361019336600461155e565b6106a9565b3480156101a457600080fd5b506101b86101b336600461144c565b61081b565b60405161015c919061158a565b3480156101d157600080fd5b506101236101e036600461160a565b6108c9565b3480156101f157600080fd5b506101fb60045481565b60405190815260200161015c565b34801561021557600080fd5b50610123610224366004611694565b610a3b565b34801561023557600080fd5b50600354610249906001600160a01b031681565b6040516001600160a01b03909116815260200161015c565b34801561026d57600080fd5b5061028161027c36600461144c565b610bf6565b60405161015c9190611736565b34801561029a57600080fd5b506101236102a9366004611842565b610ef0565b3480156102ba57600080fd5b506101fb60015481565b6101236102d236600461144c565b610f3c565b3480156102e357600080fd5b506101236102f23660046118f1565b611026565b34801561030357600080fd5b5061012361031236600461144c565b611148565b34801561032357600080fd5b506101fb60025481565b34801561033957600080fd5b5061012361034836600461160a565b61120d565b6003546001600160a01b031633146103805760405162461bcd60e51b815260040161037790611965565b60405180910390fd5b600081815481106103935761039361198d565b600091825260209091206006600f90920201015460ff1615156001146103bb576103bb6119a3565b6103c481610585565b50565b600081815481106103d757600080fd5b90600052602060002090600f02016000915090508060000180546103fa906119b9565b80601f0160208091040260200160405190810160405280929190818152602001828054610426906119b9565b80156104735780601f1061044857610100808354040283529160200191610473565b820191906000526020600020905b81548152906001019060200180831161045657829003601f168201915b505050505090806001018054610488906119b9565b80601f01602080910402602001604051908101604052809291908181526020018280546104b4906119b9565b80156105015780601f106104d657610100808354040283529160200191610501565b820191906000526020600020905b8154815290600101906020018083116104e457829003601f168201915b50505060028401546003850154600686015460078701546008880154600989015460408051608081018252600a8c01548152600b8c01546001600160a01b039081166020830152600c8d015492820192909252600d8c01546060820152600e909b0154999a969995985060ff8086169850610100909504169592949193909291168b565b6003546001600160a01b031633146105af5760405162461bcd60e51b815260040161037790611965565b60008082815481106105c3576105c361198d565b90600052602060002090600f020160060160019054906101000a90046001600160a01b03166001600160a01b0316600083815481106106045761060461198d565b90600052602060002090600f02016008015460405160006040518083038185875af1925050503d8060008114610656576040519150601f19603f3d011682016040523d82523d6000602084013e61065b565b606091505b50509050806106a55760405162461bcd60e51b81526020600482015260166024820152754661696c656420746f2073656e64205265776172647360501b6044820152606401610377565b5050565b600083815481106106bc576106bc61198d565b600091825260209091206006600f90920201015460ff16156106e0576106e06119a3565b600083815481106106f3576106f361198d565b90600052602060002090600f020160020154600003610714576107146119a3565b6002546040805160808101825282815233602082015290810184905260608101839052600080548690811061074b5761074b61198d565b60009182526020808320600f929092029091016005018054600180820183559184529282902084516004909402019283558382015190830180546001600160a01b0319166001600160a01b0390921691909117905560408084015160028401556060808501516003909401939093558051858152339281019290925281018690529081018490527fa62d33f69feda965a6aa1d8a5664a19763e75ee295585d416ac17dac64ef9fe09060800160405180910390a16002805490600061080f83611a03565b91905055505050505050565b6060600082815481106108305761083061198d565b90600052602060002090600f0201600501805480602002602001604051908101604052809291908181526020016000905b828210156108be5760008481526020908190206040805160808101825260048602909201805483526001808201546001600160a01b0316848601526002820154928401929092526003015460608301529083529092019101610861565b505050509050919050565b6003546001600160a01b031633146108f35760405162461bcd60e51b815260040161037790611965565b600082815481106109065761090661198d565b600091825260209091206006600f90920201015460ff161561092a5761092a6119a3565b426000838154811061093e5761093e61198d565b90600052602060002090600f020160030154600084815481106109635761096361198d565b90600052602060002090600f02016002015461097f9190611a1c565b111561098d5761098d6119a3565b80600083815481106109a1576109a161198d565b90600052602060002090600f0201600a016000820151816000015560208201518160010160006101000a8154816001600160a01b0302191690836001600160a01b031602179055506040820151816002015560608201518160030155905050600160008381548110610a1557610a1561198d565b60009182526020909120600f90910201600601805460ff19169115159190911790555050565b60008281548110610a4e57610a4e61198d565b60009182526020909120600e600f90920201015460ff161515600114610ac65760405162461bcd60e51b815260206004820152602760248201527f54686520747265617375726520636f6f7264696e617465206973206e6f742076604482015266195c9a599a595960ca1b6064820152608401610377565b6000808381548110610ada57610ada61198d565b90600052602060002090600f02016005018281548110610afc57610afc61198d565b90600052602060002090600402016002015490506000808481548110610b2457610b2461198d565b90600052602060002090600f02016005018381548110610b4657610b4661198d565b90600052602060002090600402016003015490506000808581548110610b6e57610b6e61198d565b90600052602060002090600f0201600a016002015490506000808681548110610b9957610b9961198d565b600091825260208220600d600f9092020101549150610bec6002610bbd8487611a35565b610bc79190611b2c565b6002610bd38689611a35565b610bdd9190611b2c565b610be79190611a1c565b61134e565b5050505050505050565b610bfe6113a7565b60008281548110610c1157610c1161198d565b90600052602060002090600f0201604051806101a0016040529081600082018054610c3b906119b9565b80601f0160208091040260200160405190810160405280929190818152602001828054610c67906119b9565b8015610cb45780601f10610c8957610100808354040283529160200191610cb4565b820191906000526020600020905b815481529060010190602001808311610c9757829003601f168201915b50505050508152602001600182018054610ccd906119b9565b80601f0160208091040260200160405190810160405280929190818152602001828054610cf9906119b9565b8015610d465780601f10610d1b57610100808354040283529160200191610d46565b820191906000526020600020905b815481529060010190602001808311610d2957829003601f168201915b50505050508152602001600282015481526020016003820154815260200160048201805480602002602001604051908101604052809291908181526020018280548015610dbc57602002820191906000526020600020905b81546001600160a01b03168152600190910190602001808311610d9e575b5050505050815260200160058201805480602002602001604051908101604052809291908181526020016000905b82821015610e475760008481526020908190206040805160808101825260048602909201805483526001808201546001600160a01b0316848601526002820154928401929092526003015460608301529083529092019101610dea565b50505090825250600682015460ff80821615156020808501919091526001600160a01b03610100909304831660408086019190915260078601546060808701919091526008870154608080880191909152600988015460a088015282519081018352600a8801548152600b88015490951692850192909252600c86015490840152600d8501549083015260c0830191909152600e90920154909116151560e09091015292915050565b6003546001600160a01b03163314610f1a5760405162461bcd60e51b815260040161037790611965565b600380546001600160a01b0319166001600160a01b0392909216919091179055565b600454341015610fa15760405162461bcd60e51b815260206004820152602a60248201527f54686520616d6f756e742073686f7564206265206d6f7265207468616e20656e6044820152693a3930b731b2a332b29760b11b6064820152608401610377565b60008181548110610fb457610fb461198d565b600091825260208083206004600f909302019190910180546001810182559083529082200180546001600160a01b03191633179055805434919083908110610ffe57610ffe61198d565b90600052602060002090600f0201600801600082825461101e9190611a1c565b909155505050565b6003546001600160a01b031633146110505760405162461bcd60e51b815260040161037790611965565b60018054600080549092018083558280529091908190839081106110765761107661198d565b60009182526020909120600f909102019050806110938782611b8c565b50600181016110a28682611b8c565b50426002820155600381018490556006810180546001600160a81b0319169055600019600782015560006008820181905560098201849055600e8201805460ff191690556040805160808101825282815260208101839052908101829052606001819052600a8201819055600b820180546001600160a01b0319169055600c8201819055600d8201819055600180549161113b83611a03565b9190505550505050505050565b6003546001600160a01b031633146111725760405162461bcd60e51b815260040161037790611965565b60005b60005481101561120757600081815481106111925761119261198d565b90600052602060002090600f0201600801546000146111ff5760405162461bcd60e51b815260206004820152602360248201527f546865726520617265207374696c6c20706c617965727320696e207468652067604482015262616d6560e81b6064820152608401610377565b600101611175565b50600455565b600082815481106112205761122061198d565b600091825260209091206006600f90920201015460ff1615156001146112885760405162461bcd60e51b815260206004820152601760248201527f5468652067616d652073686f756c64206265206f7665720000000000000000006044820152606401610377565b6000828154811061129b5761129b61198d565b60009182526020909120600e600f90920201015460ff16156113135760405162461bcd60e51b815260206004820152602b60248201527f54686520747265617375726520636f6f7264696e61746520697320616c72656160448201526a191e481d995c9a599a595960aa1b6064820152608401610377565b6001600083815481106113285761132861198d565b60009182526020909120600f90910201600e01805460ff19169115159190911790555050565b600080600261135e846001611a1c565b6113689190611c4c565b90508291505b818110156113a1579050806002816113868186611c4c565b6113909190611a1c565b61139a9190611c4c565b905061136e565b50919050565b604051806101a0016040528060608152602001606081526020016000815260200160008152602001606081526020016060815260200160001515815260200160006001600160a01b0316815260200160008152602001600081526020016000815260200161143f60405180608001604052806000815260200160006001600160a01b0316815260200160008152602001600081525090565b8152600060209091015290565b60006020828403121561145e57600080fd5b5035919050565b6000815180845260005b8181101561148b5760208185018101518683018201520161146f565b506000602082860101526020601f19601f83011685010191505092915050565b805182526020808201516001600160a01b03169083015260408082015190830152606090810151910152565b60006101c08083526114eb8184018f611465565b905082810360208401526114ff818e611465565b9150508a6040830152896060830152881515608083015260018060a01b03881660a08301528660c08301528560e0830152846101008301526115456101208301856114ab565b8215156101a08301529c9b505050505050505050505050565b60008060006060848603121561157357600080fd5b505081359360208301359350604090920135919050565b6020808252825182820181905260009190848201906040850190845b818110156115cc576115b98385516114ab565b92840192608092909201916001016115a6565b50909695505050505050565b634e487b7160e01b600052604160045260246000fd5b80356001600160a01b038116811461160557600080fd5b919050565b60008082840360a081121561161e57600080fd5b833592506080601f198201121561163457600080fd5b506040516080810181811067ffffffffffffffff82111715611658576116586115d8565b806040525060208401358152611670604085016115ee565b60208201526060840135604082015260808401356060820152809150509250929050565b600080604083850312156116a757600080fd5b50508035926020909101359150565b60008151808452602080850194506020840160005b838110156116f05781516001600160a01b0316875295820195908201906001016116cb565b509495945050505050565b60008151808452602080850194506020840160005b838110156116f0576117238783516114ab565b6080969096019590820190600101611710565b6020815260008251610200806020850152611755610220850183611465565b91506020850151601f19808685030160408701526117738483611465565b9350604087015160608701526060870151608087015260808701519150808685030160a08701526117a484836116b6565b935060a08701519150808685030160c0870152506117c283826116fb565b92505060c08501516117d860e086018215159052565b5060e08501516101006117f5818701836001600160a01b03169052565b8601516101208681019190915286015161014080870191909152860151610160808701919091528601519050610180611830818701836114ab565b90950151151593019290925250919050565b60006020828403121561185457600080fd5b61185d826115ee565b9392505050565b600082601f83011261187557600080fd5b813567ffffffffffffffff80821115611890576118906115d8565b604051601f8301601f19908116603f011681019082821181831017156118b8576118b86115d8565b816040528381528660208588010111156118d157600080fd5b836020870160208301376000602085830101528094505050505092915050565b6000806000806080858703121561190757600080fd5b843567ffffffffffffffff8082111561191f57600080fd5b61192b88838901611864565b9550602087013591508082111561194157600080fd5b5061194e87828801611864565b949794965050505060408301359260600135919050565b6020808252600e908201526d1b9bdd08185d5d1a1bdc9a5e995960921b604082015260600190565b634e487b7160e01b600052603260045260246000fd5b634e487b7160e01b600052600160045260246000fd5b600181811c908216806119cd57607f821691505b6020821081036113a157634e487b7160e01b600052602260045260246000fd5b634e487b7160e01b600052601160045260246000fd5b600060018201611a1557611a156119ed565b5060010190565b80820180821115611a2f57611a2f6119ed565b92915050565b81810381811115611a2f57611a2f6119ed565b600181815b80851115611a83578160001904821115611a6957611a696119ed565b80851615611a7657918102915b93841c9390800290611a4d565b509250929050565b600082611a9a57506001611a2f565b81611aa757506000611a2f565b8160018114611abd5760028114611ac757611ae3565b6001915050611a2f565b60ff841115611ad857611ad86119ed565b50506001821b611a2f565b5060208310610133831016604e8410600b8410161715611b06575081810a611a2f565b611b108383611a48565b8060001904821115611b2457611b246119ed565b029392505050565b600061185d60ff841683611a8b565b601f821115611b87576000816000526020600020601f850160051c81016020861015611b645750805b601f850160051c820191505b81811015611b8357828155600101611b70565b5050505b505050565b815167ffffffffffffffff811115611ba657611ba66115d8565b611bba81611bb484546119b9565b84611b3b565b602080601f831160018114611bef5760008415611bd75750858301515b600019600386901b1c1916600185901b178555611b83565b600085815260208120601f198616915b82811015611c1e57888601518255948401946001909101908401611bff565b5085821015611c3c5787850151600019600388901b60f8161c191681555b5050505050600190811b01905550565b600082611c6957634e487b7160e01b600052601260045260246000fd5b50049056fea26469706673582212200fba5ad7b3590f7171d5fa970f2eaefc423c067bb7c99de51fec29b72e9c0b7864736f6c63430008180033",
  "devdoc": {
    "kind": "dev",
    "methods": {},
    "version": 1
  },
  "userdoc": {
    "kind": "user",
    "methods": {},
    "version": 1
  },
  "storageLayout": {
    "storage": [
      {
        "astId": 46,
        "contract": "contracts/Coordinate.sol:zkTreasure",
        "label": "games",
        "offset": 0,
        "slot": "0",
        "type": "t_array(t_struct(Game)42_storage)dyn_storage"
      },
      {
        "astId": 48,
        "contract": "contracts/Coordinate.sol:zkTreasure",
        "label": "nextGameId",
        "offset": 0,
        "slot": "1",
        "type": "t_uint256"
      },
      {
        "astId": 50,
        "contract": "contracts/Coordinate.sol:zkTreasure",
        "label": "nextCoordinateId",
        "offset": 0,
        "slot": "2",
        "type": "t_uint256"
      },
      {
        "astId": 52,
        "contract": "contracts/Coordinate.sol:zkTreasure",
        "label": "owner",
        "offset": 0,
        "slot": "3",
        "type": "t_address"
      },
      {
        "astId": 54,
        "contract": "contracts/Coordinate.sol:zkTreasure",
        "label": "entranceFee",
        "offset": 0,
        "slot": "4",
        "type": "t_uint256"
      }
    ],
    "types": {
      "t_address": {
        "encoding": "inplace",
        "label": "address",
        "numberOfBytes": "20"
      },
      "t_array(t_address)dyn_storage": {
        "base": "t_address",
        "encoding": "dynamic_array",
        "label": "address[]",
        "numberOfBytes": "32"
      },
      "t_array(t_struct(Coordinate)11_storage)dyn_storage": {
        "base": "t_struct(Coordinate)11_storage",
        "encoding": "dynamic_array",
        "label": "struct zkTreasure.Coordinate[]",
        "numberOfBytes": "32"
      },
      "t_array(t_struct(Game)42_storage)dyn_storage": {
        "base": "t_struct(Game)42_storage",
        "encoding": "dynamic_array",
        "label": "struct zkTreasure.Game[]",
        "numberOfBytes": "32"
      },
      "t_bool": {
        "encoding": "inplace",
        "label": "bool",
        "numberOfBytes": "1"
      },
      "t_string_storage": {
        "encoding": "bytes",
        "label": "string",
        "numberOfBytes": "32"
      },
      "t_struct(Coordinate)11_storage": {
        "encoding": "inplace",
        "label": "struct zkTreasure.Coordinate",
        "members": [
          {
            "astId": 4,
            "contract": "contracts/Coordinate.sol:zkTreasure",
            "label": "coordinateId",
            "offset": 0,
            "slot": "0",
            "type": "t_uint256"
          },
          {
            "astId": 6,
            "contract": "contracts/Coordinate.sol:zkTreasure",
            "label": "player",
            "offset": 0,
            "slot": "1",
            "type": "t_address"
          },
          {
            "astId": 8,
            "contract": "contracts/Coordinate.sol:zkTreasure",
            "label": "x",
            "offset": 0,
            "slot": "2",
            "type": "t_uint256"
          },
          {
            "astId": 10,
            "contract": "contracts/Coordinate.sol:zkTreasure",
            "label": "y",
            "offset": 0,
            "slot": "3",
            "type": "t_uint256"
          }
        ],
        "numberOfBytes": "128"
      },
      "t_struct(Game)42_storage": {
        "encoding": "inplace",
        "label": "struct zkTreasure.Game",
        "members": [
          {
            "astId": 13,
            "contract": "contracts/Coordinate.sol:zkTreasure",
            "label": "name",
            "offset": 0,
            "slot": "0",
            "type": "t_string_storage"
          },
          {
            "astId": 15,
            "contract": "contracts/Coordinate.sol:zkTreasure",
            "label": "description",
            "offset": 0,
            "slot": "1",
            "type": "t_string_storage"
          },
          {
            "astId": 17,
            "contract": "contracts/Coordinate.sol:zkTreasure",
            "label": "startAt",
            "offset": 0,
            "slot": "2",
            "type": "t_uint256"
          },
          {
            "astId": 19,
            "contract": "contracts/Coordinate.sol:zkTreasure",
            "label": "duration",
            "offset": 0,
            "slot": "3",
            "type": "t_uint256"
          },
          {
            "astId": 22,
            "contract": "contracts/Coordinate.sol:zkTreasure",
            "label": "players",
            "offset": 0,
            "slot": "4",
            "type": "t_array(t_address)dyn_storage"
          },
          {
            "astId": 26,
            "contract": "contracts/Coordinate.sol:zkTreasure",
            "label": "coordinates",
            "offset": 0,
            "slot": "5",
            "type": "t_array(t_struct(Coordinate)11_storage)dyn_storage"
          },
          {
            "astId": 28,
            "contract": "contracts/Coordinate.sol:zkTreasure",
            "label": "isOver",
            "offset": 0,
            "slot": "6",
            "type": "t_bool"
          },
          {
            "astId": 30,
            "contract": "contracts/Coordinate.sol:zkTreasure",
            "label": "closestPlayer",
            "offset": 1,
            "slot": "6",
            "type": "t_address"
          },
          {
            "astId": 32,
            "contract": "contracts/Coordinate.sol:zkTreasure",
            "label": "closestDistance",
            "offset": 0,
            "slot": "7",
            "type": "t_uint256"
          },
          {
            "astId": 34,
            "contract": "contracts/Coordinate.sol:zkTreasure",
            "label": "totalDeposit",
            "offset": 0,
            "slot": "8",
            "type": "t_uint256"
          },
          {
            "astId": 36,
            "contract": "contracts/Coordinate.sol:zkTreasure",
            "label": "treasureHash",
            "offset": 0,
            "slot": "9",
            "type": "t_uint256"
          },
          {
            "astId": 39,
            "contract": "contracts/Coordinate.sol:zkTreasure",
            "label": "treasureCoordinate",
            "offset": 0,
            "slot": "10",
            "type": "t_struct(Coordinate)11_storage"
          },
          {
            "astId": 41,
            "contract": "contracts/Coordinate.sol:zkTreasure",
            "label": "treasureCoordinateVerified",
            "offset": 0,
            "slot": "14",
            "type": "t_bool"
          }
        ],
        "numberOfBytes": "480"
      },
      "t_uint256": {
        "encoding": "inplace",
        "label": "uint256",
        "numberOfBytes": "32"
      }
    }
  }
}